{
  "contractName": "Factory",
  "abi": [
    {
      "inputs": [],
      "payable": false,
      "stateMutability": "nonpayable",
      "type": "constructor"
    },
    {
      "constant": true,
      "inputs": [
        {
          "internalType": "uint256",
          "name": "",
          "type": "uint256"
        }
      ],
      "name": "Defective_Products",
      "outputs": [
        {
          "internalType": "uint256",
          "name": "id",
          "type": "uint256"
        },
        {
          "internalType": "string",
          "name": "name",
          "type": "string"
        },
        {
          "internalType": "string",
          "name": "Defect_type",
          "type": "string"
        }
      ],
      "payable": false,
      "stateMutability": "view",
      "type": "function"
    },
    {
      "constant": true,
      "inputs": [],
      "name": "ProductCount",
      "outputs": [
        {
          "internalType": "uint256",
          "name": "",
          "type": "uint256"
        }
      ],
      "payable": false,
      "stateMutability": "view",
      "type": "function"
    },
    {
      "constant": false,
      "inputs": [
        {
          "internalType": "string",
          "name": "_name",
          "type": "string"
        },
        {
          "internalType": "string",
          "name": "_Defect_type",
          "type": "string"
        }
      ],
      "name": "addDefectiveProduct",
      "outputs": [],
      "payable": false,
      "stateMutability": "nonpayable",
      "type": "function"
    }
  ],
  "bytecode": "0x608060405234801561001057600080fd5b5061008b6040518060400160405280600981526020017f50726f64756374203100000000000000000000000000000000000000000000008152506040518060400160405280600181526020017f640000000000000000000000000000000000000000000000000000000000000081525061018460201b60201c565b6101056040518060400160405280600981526020017f50726f64756374203200000000000000000000000000000000000000000000008152506040518060400160405280600181526020017f610000000000000000000000000000000000000000000000000000000000000081525061018460201b60201c565b61017f6040518060400160405280600981526020017f50726f64756374203300000000000000000000000000000000000000000000008152506040518060400160405280600181526020017f620000000000000000000000000000000000000000000000000000000000000081525061018460201b60201c565b6102b7565b600160008154809291906001019190505550604051806060016040528060015481526020018381526020018281525060008060015481526020019081526020016000206000820151816000015560208201518160010190805190602001906101ed929190610212565b50604082015181600201908051906020019061020a929190610212565b509050505050565b828054600181600116156101000203166002900490600052602060002090601f016020900481019282601f1061025357805160ff1916838001178555610281565b82800160010185558215610281579182015b82811115610280578251825591602001919060010190610265565b5b50905061028e9190610292565b5090565b6102b491905b808211156102b0576000816000905550600101610298565b5090565b90565b610598806102c66000396000f3fe608060405234801561001057600080fd5b50600436106100415760003560e01c806328930246146100465780634f67c62414610198578063c9ff6685146101b6575b600080fd5b6101966004803603604081101561005c57600080fd5b810190808035906020019064010000000081111561007957600080fd5b82018360208201111561008b57600080fd5b803590602001918460018302840111640100000000831117156100ad57600080fd5b91908080601f016020809104026020016040519081016040528093929190818152602001838380828437600081840152601f19601f8201169050808301925050505050505091929192908035906020019064010000000081111561011057600080fd5b82018360208201111561012257600080fd5b8035906020019184600183028401116401000000008311171561014457600080fd5b91908080601f016020809104026020016040519081016040528093929190818152602001838380828437600081840152601f19601f8201169050808301925050505050505091929192905050506102d0565b005b6101a061035e565b6040518082815260200191505060405180910390f35b6101e2600480360360208110156101cc57600080fd5b8101908080359060200190929190505050610364565b604051808481526020018060200180602001838103835285818151815260200191508051906020019080838360005b8381101561022c578082015181840152602081019050610211565b50505050905090810190601f1680156102595780820380516001836020036101000a031916815260200191505b50838103825284818151815260200191508051906020019080838360005b83811015610292578082015181840152602081019050610277565b50505050905090810190601f1680156102bf5780820380516001836020036101000a031916815260200191505b509550505050505060405180910390f35b600160008154809291906001019190505550604051806060016040528060015481526020018381526020018281525060008060015481526020019081526020016000206000820151816000015560208201518160010190805190602001906103399291906104be565b5060408201518160020190805190602001906103569291906104be565b509050505050565b60015481565b6000602052806000526040600020600091509050806000015490806001018054600181600116156101000203166002900480601f0160208091040260200160405190810160405280929190818152602001828054600181600116156101000203166002900480156104165780601f106103eb57610100808354040283529160200191610416565b820191906000526020600020905b8154815290600101906020018083116103f957829003601f168201915b505050505090806002018054600181600116156101000203166002900480601f0160208091040260200160405190810160405280929190818152602001828054600181600116156101000203166002900480156104b45780601f10610489576101008083540402835291602001916104b4565b820191906000526020600020905b81548152906001019060200180831161049757829003601f168201915b5050505050905083565b828054600181600116156101000203166002900490600052602060002090601f016020900481019282601f106104ff57805160ff191683800117855561052d565b8280016001018555821561052d579182015b8281111561052c578251825591602001919060010190610511565b5b50905061053a919061053e565b5090565b61056091905b8082111561055c576000816000905550600101610544565b5090565b9056fea265627a7a72315820c42dd1abedea57d34b695579a4bf876661b517a055ec7c9cba26d7e08d69690d64736f6c63430005100032",
  "source": "pragma solidity 0.5.16;\r\n\r\n\r\ncontract Factory {\r\n    // Model a Candidate\r\n    struct Product {\r\n        uint id;\r\n        string name;\r\n        string Defect_type;\r\n    }\r\n\r\n    // Read/write candidates\r\n    mapping(uint => Product) public Defective_Products;\r\n    // Store Candidates Count\r\n    uint public ProductCount;\r\n\r\n    constructor() public {\r\n        addDefectiveProduct(\"Product 1\", \"d\");\r\n        addDefectiveProduct(\"Product 2\", \"a\");\r\n        addDefectiveProduct(\"Product 3\", \"b\");\r\n    }\r\n\r\n    function addDefectiveProduct (string memory _name, string memory _Defect_type) public {\r\n        ProductCount++;\r\n        Defective_Products[ProductCount] = Product(ProductCount, _name, _Defect_type);\r\n    }\r\n\r\n}\r\n",
  "sourcePath": "D:/Detect_DefectiveProduct/contracts/Factory.sol",
  "compiler": {
    "name": "solc",
    "version": "0.5.16+commit.9c3226ce.Emscripten.clang"
  },
  "schemaVersion": "3.3.4",
  "updatedAt": "2021-06-10T07:40:02.313Z",
  "networkType": "ethereum",
  "devdoc": {
    "methods": {}
  },
  "userdoc": {
    "methods": {}
  }
}