{
  "contractName": "Factory",
  "abi": [
    {
      "inputs": [],
      "payable": false,
      "stateMutability": "nonpayable",
      "type": "constructor"
    },
    {
      "constant": true,
      "inputs": [
        {
          "internalType": "uint256",
          "name": "",
          "type": "uint256"
        }
      ],
      "name": "Defective_Products",
      "outputs": [
        {
          "internalType": "uint256",
          "name": "id",
          "type": "uint256"
        },
        {
          "internalType": "string",
          "name": "name",
          "type": "string"
        },
        {
          "internalType": "string",
          "name": "Defect_type",
          "type": "string"
        }
      ],
      "payable": false,
      "stateMutability": "view",
      "type": "function"
    },
    {
      "constant": true,
      "inputs": [],
      "name": "ProductCount",
      "outputs": [
        {
          "internalType": "uint256",
          "name": "",
          "type": "uint256"
        }
      ],
      "payable": false,
      "stateMutability": "view",
      "type": "function"
    },
    {
      "constant": false,
      "inputs": [
        {
          "internalType": "string",
          "name": "_name",
          "type": "string"
        },
        {
          "internalType": "string",
          "name": "_Defect_type",
          "type": "string"
        }
      ],
      "name": "addDefectiveProduct",
      "outputs": [],
      "payable": false,
      "stateMutability": "nonpayable",
      "type": "function"
    },
    {
      "constant": true,
      "inputs": [
        {
          "internalType": "uint256",
          "name": "_id",
          "type": "uint256"
        }
      ],
      "name": "getInfo",
      "outputs": [
        {
          "internalType": "uint256",
          "name": "",
          "type": "uint256"
        },
        {
          "internalType": "string",
          "name": "",
          "type": "string"
        },
        {
          "internalType": "string",
          "name": "",
          "type": "string"
        }
      ],
      "payable": false,
      "stateMutability": "view",
      "type": "function"
    }
  ],
  "bytecode": "0x608060405234801561001057600080fd5b5061008b6040518060400160405280600981526020017f50726f64756374203100000000000000000000000000000000000000000000008152506040518060400160405280600181526020017f640000000000000000000000000000000000000000000000000000000000000081525061018460201b60201c565b6101056040518060400160405280600981526020017f50726f64756374203200000000000000000000000000000000000000000000008152506040518060400160405280600181526020017f610000000000000000000000000000000000000000000000000000000000000081525061018460201b60201c565b61017f6040518060400160405280600981526020017f50726f64756374203300000000000000000000000000000000000000000000008152506040518060400160405280600181526020017f620000000000000000000000000000000000000000000000000000000000000081525061018460201b60201c565b6102b7565b600160008154809291906001019190505550604051806060016040528060015481526020018381526020018281525060008060015481526020019081526020016000206000820151816000015560208201518160010190805190602001906101ed929190610212565b50604082015181600201908051906020019061020a929190610212565b509050505050565b828054600181600116156101000203166002900490600052602060002090601f016020900481019282601f1061025357805160ff1916838001178555610281565b82800160010185558215610281579182015b82811115610280578251825591602001919060010190610265565b5b50905061028e9190610292565b5090565b6102b491905b808211156102b0576000816000905550600101610298565b5090565b90565b610847806102c66000396000f3fe608060405234801561001057600080fd5b506004361061004c5760003560e01c80631a3cd59a14610051578063289302461461016b5780634f67c624146102bd578063c9ff6685146102db575b600080fd5b61007d6004803603602081101561006757600080fd5b81019080803590602001909291905050506103f5565b604051808481526020018060200180602001838103835285818151815260200191508051906020019080838360005b838110156100c75780820151818401526020810190506100ac565b50505050905090810190601f1680156100f45780820380516001836020036101000a031916815260200191505b50838103825284818151815260200191508051906020019080838360005b8381101561012d578082015181840152602081019050610112565b50505050905090810190601f16801561015a5780820380516001836020036101000a031916815260200191505b509550505050505060405180910390f35b6102bb6004803603604081101561018157600080fd5b810190808035906020019064010000000081111561019e57600080fd5b8201836020820111156101b057600080fd5b803590602001918460018302840111640100000000831117156101d257600080fd5b91908080601f016020809104026020016040519081016040528093929190818152602001838380828437600081840152601f19601f8201169050808301925050505050505091929192908035906020019064010000000081111561023557600080fd5b82018360208201111561024757600080fd5b8035906020019184600183028401116401000000008311171561026957600080fd5b91908080601f016020809104026020016040519081016040528093929190818152602001838380828437600081840152601f19601f82011690508083019250505050505050919291929050505061057f565b005b6102c561060d565b6040518082815260200191505060405180910390f35b610307600480360360208110156102f157600080fd5b8101908080359060200190929190505050610613565b604051808481526020018060200180602001838103835285818151815260200191508051906020019080838360005b83811015610351578082015181840152602081019050610336565b50505050905090810190601f16801561037e5780820380516001836020036101000a031916815260200191505b50838103825284818151815260200191508051906020019080838360005b838110156103b757808201518184015260208101905061039c565b50505050905090810190601f1680156103e45780820380516001836020036101000a031916815260200191505b509550505050505060405180910390f35b600060608060008085815260200190815260200160002060000154600080868152602001908152602001600020600101600080878152602001908152602001600020600201818054600181600116156101000203166002900480601f0160208091040260200160405190810160405280929190818152602001828054600181600116156101000203166002900480156104cf5780601f106104a4576101008083540402835291602001916104cf565b820191906000526020600020905b8154815290600101906020018083116104b257829003601f168201915b50505050509150808054600181600116156101000203166002900480601f01602080910402602001604051908101604052809291908181526020018280546001816001161561010002031660029004801561056b5780601f106105405761010080835404028352916020019161056b565b820191906000526020600020905b81548152906001019060200180831161054e57829003601f168201915b505050505090509250925092509193909250565b600160008154809291906001019190505550604051806060016040528060015481526020018381526020018281525060008060015481526020019081526020016000206000820151816000015560208201518160010190805190602001906105e892919061076d565b50604082015181600201908051906020019061060592919061076d565b509050505050565b60015481565b6000602052806000526040600020600091509050806000015490806001018054600181600116156101000203166002900480601f0160208091040260200160405190810160405280929190818152602001828054600181600116156101000203166002900480156106c55780601f1061069a576101008083540402835291602001916106c5565b820191906000526020600020905b8154815290600101906020018083116106a857829003601f168201915b505050505090806002018054600181600116156101000203166002900480601f0160208091040260200160405190810160405280929190818152602001828054600181600116156101000203166002900480156107635780601f1061073857610100808354040283529160200191610763565b820191906000526020600020905b81548152906001019060200180831161074657829003601f168201915b5050505050905083565b828054600181600116156101000203166002900490600052602060002090601f016020900481019282601f106107ae57805160ff19168380011785556107dc565b828001600101855582156107dc579182015b828111156107db5782518255916020019190600101906107c0565b5b5090506107e991906107ed565b5090565b61080f91905b8082111561080b5760008160009055506001016107f3565b5090565b9056fea265627a7a7231582006414ee726f4caf6d811b34c894d43e1b073b027781502a37e6f7a88e96e557c64736f6c63430005100032",
  "source": "pragma solidity 0.5.16;\r\n\r\n\r\ncontract Factory {\r\n    // Model a Candidate\r\n    struct Product {\r\n        uint id;\r\n        string name;\r\n        string Defect_type;\r\n    }\r\n\r\n    // Read/write candidates\r\n    mapping(uint => Product) public Defective_Products;\r\n    // Store Candidates Count\r\n    uint public ProductCount;\r\n\r\n    constructor() public {\r\n        addDefectiveProduct(\"Product 1\", \"d\");\r\n        addDefectiveProduct(\"Product 2\", \"a\");\r\n        addDefectiveProduct(\"Product 3\", \"b\");\r\n    }\r\n\r\n    function addDefectiveProduct (string memory _name, string memory _Defect_type) public {\r\n        ProductCount++;\r\n        Defective_Products[ProductCount] = Product(ProductCount, _name, _Defect_type);\r\n    }\r\n\r\n    function getInfo(uint _id) public view returns(uint,string memory, string memory) {\r\n        return(Defective_Products[_id].id,Defective_Products[_id].name,Defective_Products[_id].Defect_type);\r\n    }\r\n}\r\n",
  "sourcePath": "D:/ElectionEthDapp/contracts/Factory.sol",
  "compiler": {
    "name": "solc",
    "version": "0.5.16+commit.9c3226ce.Emscripten.clang"
  },
  "schemaVersion": "3.3.4",
  "updatedAt": "2021-06-04T08:59:27.830Z",
  "networkType": "ethereum",
  "devdoc": {
    "methods": {}
  },
  "userdoc": {
    "methods": {}
  }
}